:02000000632873
:100006008312061086140611861506128616061326
:1000160086170630CB001330CC00AD30CD00CD0BAB
:100026001228CC0B1228CB0B122800000000080067
:1000360083120614861006158611061686120617F2
:1000460086130630CB001330CC00AD30CD00CD0B7F
:100056002A28CC0B2A28CB0B2A28000000000800EF
:1000660083120614861406158615061286120613C2
:1000760086130630CB001330CC00AD30CD00CD0B4F
:100086004228CC0B4228CB0B422800000000080077
:100096008312061086100611861106168616061796
:1000A60086170630CB001330CC00AD30CD00CD0B1B
:1000B6005A28CC0B5A28CB0B5A28000000000800FF
:1000C600831686011F308500831286018E018F01FB
:1000D6000F08003C031D71280E080A3C031C9628D5
:1000E600FF3086000630CB001330CC00AD30CD009B
:1000F600CD0B7B28CC0B7B28CB0B7B28000000008C
:1001060086010630CB001330CC00AD30CD00CD0BD0
:100116008A28CC0B8A28CB0B8A28000000008E0A7E
:1001260003198F0A6B288E018F010F08003C031DEF
:100136009E280E08053C031C8629013086000630E1
:10014600CB001330CC00AD30CD00CD0BA828CC0BA6
:10015600A828CB0BA8280000000003308600063034
:10016600CB001330CC00AD30CD00CD0BB828CC0B76
:10017600B828CB0BB82800000000073086000630F0
:10018600CB001330CC00AD30CD00CD0BC828CC0B46
:10019600C828CB0BC828000000000F3086000630A8
:1001A600CB001330CC00AD30CD00CD0BD828CC0B16
:1001B600D828CB0BD828000000001F308600063058
:1001C600CB001330CC00AD30CD00CD0BE828CC0BE6
:1001D600E828CB0BE828000000003F3086000630F8
:1001E600CB001330CC00AD30CD00CD0BF828CC0BB6
:1001F600F828CB0BF828000000007F308600063078
:10020600CB001330CC00AD30CD00CD0B0829CC0B84
:100216000829CB0B082900000000FF3086000630B5
:10022600CB001330CC00AD30CD00CD0B1829CC0B54
:100236001829CB0B182900000000FF308600063075
:10024600CB001330CC00AD30CD00CD0B2829CC0B24
:100256002829CB0B2829000000007F3086000630B5
:10026600CB001330CC00AD30CD00CD0B3829CC0BF4
:100276003829CB0B3829000000003F3086000630B5
:10028600CB001330CC00AD30CD00CD0B4829CC0BC4
:100296004829CB0B4829000000001F308600063095
:1002A600CB001330CC00AD30CD00CD0B5829CC0B94
:1002B6005829CB0B5829000000000F308600063065
:1002C600CB001330CC00AD30CD00CD0B6829CC0B64
:1002D6006829CB0B6829000000000730860006302D
:1002E600CB001330CC00AD30CD00CD0B7829CC0B34
:1002F6007829CB0B782900000000033086008E0A8F
:1003060003198F0A98288E018F010F08003C031DE0
:100316008E290E080A3C031CA4291B200630CB009C
:100326001330CC00AD30CD00CD0B9729CC0B9729DF
:10033600CB0B97290000000003208E0A03198F0AB1
:1003460088298E018F0100300F02031DAC290A3067
:100356000E020318C22933200630CB001330CC001E
:10036600AD30CD00CD0BB529CC0BB529CB0BB529BE
:10037600000000004B208E0A03198F0AA62969285F
:02038600C32989
:02400E00FA3F77
:00000001FF
